:100000000C942A000C9447000C9447000C94470071
:100010000C9447000C9447000C9447000C94470044
:100020000C9447000C9455000C9447000C94470026
:100030000C9447000C9447000C9447000C94470024
:100040000C9447000C9447000C9447000C94470014
:100050000C94470011241FBECFE5D4E0DEBFCDBF16
:1000600011E0A0E6B0E0E0EDF4E102C005900D92F1
:10007000A834B107D9F711E0A8E4B1E001C01D929E
:10008000AC37B107E1F70E944A060C94660A0C945B
:1000900000008FEF84BB9FE391BB8ABB8FE087BBDF
:1000A000089581E089BF83BF08951F920F920FB614
:1000B0000F9211242F933F934F935F938F939F93AE
:1000C00080916E0190916F01019690936F018093E2
:1000D0006E012BE038E74091620150916301241BCF
:1000E000350B281739076CF48091700190917101DC
:1000F0000196909371018093700110926F0110929C
:100100006E018091700190917101CC976CF080919B
:1001100048019091490101969093490180934801CB
:1001200010927101109270012091480130914901A3
:100130002C333105ACF080916A0190916B01892BD1
:1001400049F480914A0190914B01019690934B01A3
:1001500080934A012C533040309349012093480149
:1001600080914A0190914B01883191052CF048977C
:1001700090934B0180934A019F918F915F914F9192
:100180003F912F910F900FBE0F901F9018958330C5
:10019000910501F18430910534F48130910561F0CD
:1001A000029799F510C08530910511F185309105C0
:1001B000C4F0069751F523C090989198929893981F
:1001C000949A959808959098919892989398959A62
:1001D00094980895909891989298949A959A939A51
:1001E0000895909891989398949A959A929A0895D0
:1001F000909892989398949A959A919A0895919834
:1002000092989398949A959A909A089524E630E05B
:10021000A901649F9001659F300D749F300D1124DA
:10022000280F391FC9010895809148019091490113
:100230009093610080936000089580914C019091AB
:100240004D0140914801509149018417950711F5DE
:1002500020914E0130914F0180914A0190914B01C4
:1002600028173907B9F48091580190915901892BC9
:1002700089F080916000909161008417950751F09A
:100280008DE390E09093610080936000969AE1E0A6
:10029000F0E003C09698E0E0F0E08091500190918A
:1002A00051018417950711F52091520130915301A6
:1002B00080914A0190914B0128173907B9F4809138
:1002C0005A0190915B01892B89F080916000909197
:1002D00061008417950751F08DE390E090936100E1
:1002E00080936000979A61E070E003C0979860E0A7
:1002F00070E080915401909155018417950711F594
:10030000209156013091570180914A0190914B0103
:1003100028173907B9F480915C0190915D01892B10
:1003200089F080916000909161008417950751F0E9
:100330008DE390E09093610080936000C39A81E028
:1003400090E003C0C39880E090E0EF2B41F4672B6E
:1003500031F4009711F081E090E09C0102C021E0AF
:1003600030E0C9010895809148019091490190932E
:10037000610080936000089520914A0130914B0103
:1003800084E690E0AC01249FC001259F900D349F2E
:10039000900D11242091480130914901820F931F43
:1003A00090936D0180936C010895FF920F931F93BA
:1003B000DF93CF93CDB7DEB764970FB6F894DEBF67
:1003C0000FBECDBF8C01DE011196E4EAF0E084E1BE
:1003D00001900D928150E1F7C8016AE070E00E943F
:1003E0003F0AFC01EE0FFF1F9E012F5F3F4FE20F00
:1003F000F31FF080C8016AE070E00E943F0ACB0161
:100400006AE070E00E943F0A880F991F280F391F89
:10041000F901808185BB85E090E00E94C70000EA79
:100420001FE0C8010197F1F7F5BA86E090E00E945D
:10043000C700C8010197F1F764960FB6F894DEBFC4
:100440000FBECDBFCF91DF911F910F91FF90089507
:10045000AF92BF92CF92DF92EF92FF920F931F93D2
:10046000DF93CF93CDB7DEB7E8970FB6F894DEBF32
:100470000FBECDBF9C016AE070E00E943F0A5C01A4
:10048000C9016AE070E00E943F0ACB016AE070E0B7
:100490000E943F0A6C01C90164E670E00E943F0AB5
:1004A000CB016AE070E00E943F0A8C01C90168EE4E
:1004B00073E00E943F0ACB016AE070E00E943F0AAD
:1004C0007C01DE015196E8EBF0E088E201900D92AC
:1004D0008150E1F7F801EE0FFF1F9E012F5F3F4FA4
:1004E000E20FF31FA089B189F601EE0FFF1FE20FA3
:1004F000F31F60897189F501EE0FFF1FE20FF31FF3
:1005000040895189F701EE0FFF1FE20FF31F808929
:1005100091899A838983BC83AB837E836D8358875B
:100520004F83065F1F4F000F111F020F131FD801CB
:100530005096ED91FC9151978AE090E0C80ED91E3B
:10054000CC0CDD1CC20ED31ED60150966D917C9151
:100550005197A80EB91EAA0CBB1CA20EB31ED50142
:1005600050964D915C915197E80EF91EEE0CFF1CD0
:10057000E20EF31ED70150968D919C9151979A8768
:100580008987FC87EB877E876D87588B4F8779E05B
:10059000C72ED12CCC0EDD1E790100E010E060EA00
:1005A000A62E6FE0B62E023011051CF4F6018081F4
:1005B00002C0D7018C9185BB0F5F1F4FC8010E94FD
:1005C000C700C5010197F1F7E2E0F0E0CE0EDF1EB3
:1005D000EE0EFF1E0430110531F7809170019091ED
:1005E00071010E94D501E8960FB6F894DEBF0FBEE8
:1005F000CDBFCF91DF911F910F91FF90EF90DF90D2
:10060000CF90BF90AF900895809164009091650065
:100610008230910549F060916200709163008330EF
:10062000910509F0B5C02EC0609162007091630021
:100630006130710521F580916A0190916B010196FD
:1006400090936B0180936A01039724F010926B01E1
:1006500010926A0160916A0170916B0181E090E0F3
:100660000E949808609148017091490140914A01A7
:1006700050914B0181E090E00E944307089582E091
:1006800090E0A5C06230710571F16330710509F425
:1006900050C06130710509F078C0709367016093B4
:1006A00066018091680190916901019690936901BA
:1006B00080936801049724F01092690110926801F8
:1006C000609168017091690181E090E00E94980852
:1006D00060914C0170914D0140914E0150914F013C
:1006E00081E090E04BC07093670160936601809158
:1006F0006801909169010196909369018093680166
:10070000049724F0109269011092680160916801C9
:100710007091690182E090E00E9498086091500118
:1007200070915101409152015091530182E090E04B
:1007300025C0709367016093660180916801909174
:10074000690101969093690180936801049724F0F0
:1007500010926901109268016091680170916901BD
:1007600083E090E00E9498086091540170915501D7
:10077000409156015091570183E090E00E94430759
:1007800083E090E00E942509089583E090E01FC077
:1007900063307105E1F481309105C9F48091620103
:1007A0009091630127E7893892072CF0109263013A
:1007B000109262010895892B19F080E098E702C039
:1007C00084E297E7909363018093620108950E9409
:1007D000070A909365008093640081E090E0909315
:1007E0006300809362000895809164009091650099
:1007F0008230910539F08330910581F1019709F03C
:10080000E5C040C080916A0190916B0181309105F3
:1008100039F08230910599F0892B09F0D7C032C0A8
:1008200080914A0190914B01009719F487E190E083
:1008300001C0019790934B0180934A0108958091E4
:10084000480190914901009719F48BE390E001C0B1
:100850000197909349018093480108958091680120
:100860009091690181309105D1F0823091051CF49D
:10087000892B41F0089582309105E1F1039709F049
:10088000A5C063C0809162009091630061E070E058
:100890000E944708909363008093620008958091BE
:1008A0006200909163008230910581F08330910560
:1008B000B9F0019709F08AC080914E0190914F01E3
:1008C000019690934F0180934E01089580915201BB
:1008D0009091530101969093530180935201089592
:1008E0008091560190915701019690935701809302
:1008F00056010895809162009091630082309105C5
:1009000081F083309105B9F0019709F05FC08091C3
:100910004C0190914D01019690934D0180934C01B3
:100920000895809150019091510101969093510149
:100930008093500108958091540190915501019642
:100940009093550180935401089580916200909195
:10095000630082309105B9F08330910531F1019740
:10096000A9F58091580190915901892B29F0109295
:10097000590110925801089581E090E09093590137
:1009800080935801089580915A0190915B01892BC1
:1009900029F010925B0110925A01089581E090E0D5
:1009A00090935B0180935A01089580915C0190912E
:1009B0005D01892B29F010925D0110925C01089570
:1009C00081E090E090935D0180935C0108958091B7
:1009D0006400909165008230910539F08330910573
:1009E00031F1019709F0FAC037C080916A01909106
:1009F0006B018130910539F08230910571F0892BBE
:100A000009F0ECC029C080914A0190914B010196F8
:100A100090934B0180934A010895809148019091F1
:100A2000490101969093490180934801089580916E
:100A300068019091690181309105D9F0823091056A
:100A40001CF4892B49F008958230910509F44BC0BC
:100A5000039709F0C3C081C0809162009091630048
:100A600060E070E00E94470890936300809362000A
:100A70000895809162009091630082309105A9F001
:100A80008330910509F1019709F0A8C080914E01CA
:100A900090914F01009719F487E190E001C0019710
:100AA00090934F0180934E0108958091520190914F
:100AB0005301009719F487E190E001C001979093EA
:100AC00053018093520108958091560190915701EE
:100AD000009719F487E190E001C0019790935701C6
:100AE0008093560108958091620090916300823056
:100AF0009105A9F08330910509F1019709F06EC0C5
:100B000080914C0190914D01009719F487E190E09C
:100B100001C0019790934D0180934C0108958091FD
:100B2000500190915101009719F487E190E001C0C4
:100B30000197909351018093500108958091540141
:100B400090915501009719F487E190E001C0019759
:100B50009093550180935401089580916200909183
:100B6000630082309105B9F08330910531F101972E
:100B7000A9F58091580190915901892B29F0109283
:100B8000590110925801089581E090E09093590125
:100B900080935801089580915A0190915B01892BAF
:100BA00029F010925B0110925A01089581E090E0C3
:100BB00090935B0180935A01089580915C0190911C
:100BC0005D01892B29F010925D0110925C0108955E
:100BD00081E090E090935D0180935C010895B59968
:100BE0000FC08091740190917501892B69F481E0A7
:100BF00090E090937501809374010E94E70404C013
:100C00001092750110927401B6990FC0809176010F
:100C100090917701892B69F481E090E090937701BE
:100C2000809376010E94F40304C010927701109221
:100C30007601B7990FC08091780190917901892B45
:100C400069F481E090E090937901809378010E94AB
:100C5000040304C01092790110927801B49915C070
:100C600080917A0190917B01892B99F481E090E049
:100C700090937B0180937A01809148019091490182
:100C80009093610080936000089510927B01109210
:100C90007A010895CF93DF9378949FEF94BB8FE30D
:100CA00081BB9ABB8FE087BB81E089BF83BF0E9475
:100CB000DE060E94F306109249011092480110923C
:100CC0004B0110924A0180916200909163000E9452
:100CD000F409C4E6D0E080914A0190914B019C0157
:100CE0002C9FC0012D9F900D3C9F900D11242091B1
:100CF000480130914901820F931F90936D018093B9
:100D00006C010E9428020E94EF050E941D01909331
:100D100065018093640120914801309149018091DF
:100D20005E0190915F012817390759F420914A011B
:100D300030914B0180916001909161012817390732
:100D4000D1F080916400909165000297A1F482E057
:100D500090E00E942509809148019091490190936B
:100D60005F0180935E0180914A0190914B019093C5
:100D70006101809360018091680190916901892BE4
:100D800009F4A9CF83E090E00E942509A4CFC29A7C
:100D90008BBBC09A85ED982F9A95F1F7C0988A95EC
:100DA000F1F70895C2988BBBC09A80E991E0FC01ED
:100DB0003197F1F7C0980197F1F7089581E090E03D
:100DC0000E94D20680E49FE10197F1F78CE090E069
:100DD0000E94D20680EA9FE00197F1F788E390E055
:100DE0000E94D206089581E090E00E94D20680E43D
:100DF0009FE10197F1F78CE090E00E94D20688EC29
:100E000090E00197F1F788E390E00E94D206089500
:100E10008230910581F0833091051CF40197C1F473
:100E200006C08330910559F0049791F40CC0CB01B2
:100E300080589F4F0BC0CB0180549F4F07C0CB0100
:100E400080579F4F03C0CB0180539F4F0E94D20613
:100E500080E293E00197F1F7089581E090E00E942D
:100E6000D20688EC90E00197F1F70895892B19F0EC
:100E70008EE090E002C08CE090E00E94D20685ED0A
:100E80008A95F1F708958F929F92AF92BF92CF9279
:100E9000DF92EF92FF920F931F93CF93DF93EC01BA
:100EA0004B015A0180916A0190916B01813091054B
:100EB00051F08230910579F0892BA1F450E2D52EC2
:100EC00040E2F42E04C03BE5D32E2DE5F22E00E2E5
:100ED00090E2E92E07C080E2D82E00E2F02E0BE56A
:100EE0001DE5E12E8091640090916500039789F5DE
:100EF00080916801909169018130910589F082307B
:100F000091051CF4892B39F024C08230910581F0C1
:100F10000397F9F415C0B0E2DB2EA0E2FA2E04C06C
:100F2000FBE5DF2EEDE5FE2E00E270E2E72E11C0BC
:100F300060E2D62E50E2F52E0BE54DE5E42E09C019
:100F400030E2F32E00E220E2E22E9BE5C92E1DE501
:100F500003C080E2C82E10E2CE0162E070E00E9481
:100F600008078D2D992787FD90950E94C706C5011A
:100F70006AE070E00E943F0ACB016AE070E00E94E4
:100F80003F0AC0960E94C706C5016AE070E00E9451
:100F90003F0AC0960E94C7068F2D992787FD90951E
:100FA0000E94C7068AE390E00E94C706802F992717
:100FB00087FD90950E94C706C4016AE070E00E9418
:100FC0003F0ACB016AE070E00E943F0AC0960E948F
:100FD000C706C4016AE070E00E943F0AC0960E9402
:100FE000C7068E2D992787FD90950E94C7068C2DE8
:100FF00090E00E94C706809164009091650003977D
:10100000C9F5C130D10529F4809158019091590159
:101010000EC0C230D10529F480915A0190915B0134
:1010200006C0239739F580915C0190915D01C12F35
:10103000DD27C7FDD095892B71F08FE490E00E94E9
:10104000C7068EE490E00E94C706CE010E94C70644
:1010500080E290E00DC08FE490E00E94C70686E435
:1010600090E00E94C70686E490E00E94C706CE0189
:101070000E94C706DF91CF911F910F91FF90EF90D3
:10108000DF90CF90BF90AF909F908F9008950F9377
:101090001F93CF93DF938C01809164009091650042
:1010A0008230910559F08330910559F0019719F478
:1010B00083E090E008C080E090E005C082E090E02E
:1010C00002C084E090E06115710521F06130710586
:1010D00031F403C00150104002C00F5F1F4F801752
:1010E00091071CF4081B190B05C01016110614F00B
:1010F000080F191FC1E0D0E0CE0160E070E00E944F
:10110000080780E290E00E94C7062196C530D1050D
:1011100099F7C80160E070E00E9408078EE790E050
:101120000E94C706C801DF91CF911F910F910895CA
:10113000CF93DF93EC0161307105B1F0623071053E
:10114000A9F1672B09F055C062E070E00E94080722
:1011500080E290E00E94C706CE0165E070E00E9448
:10116000080780E290E00FC062E070E00E9408078C
:101170008BE590E00E94C706CE0165E070E00E941A
:1011800008078DE590E00E94C706CE0167E070E099
:101190000E94080780E290E00E94C706CE016AE044
:1011A00070E00E94080780E290E021C062E070E0F9
:1011B0000E94080780E290E00E94C706CE0165E029
:1011C00070E00E94080780E290E00E94C706CE010E
:1011D00067E070E00E9408078BE590E00E94C70678
:1011E000CE016AE070E00E9408078DE590E00E9461
:1011F000C706DF91CF9108950F931F93CF93DF938D
:101200008B0160E070E00E940807C0E0D0E00AC0F7
:10121000F801EC0FFD1F8081992787FD90950E94B2
:10122000C7062196F80101900020E9F73197E01BED
:10123000F10BCE17DF0760F380EA9FE00197F1F72B
:10124000DF91CF911F910F9108958230910521F088
:10125000039709F067C009C0609148017091490186
:1012600040914A0150914B0141C080916801909199
:1012700069012091620030916300892B31F52230A1
:10128000310559F02330310569F02130310581F401
:1012900081E090E060EE70E009C082E090E061EFF4
:1012A00070E004C083E090E062E071E00E94FC081E
:1012B000809162009091630060E070E00E940807F6
:1012C0008EE790E00E94C70608952230310589F02C
:1012D00023303105D9F02130310521F560914C01E1
:1012E00070914D0140914E0150914F0181E090E08D
:1012F0000AC060915001709151014091520150918A
:10130000530182E090E00E944307089560915401E8
:1013100070915501409156015091570183E090E042
:101320000E9443070895CF92DF92EF92FF920F93AE
:101330001F937A01690181E090E00E94FC0882E03D
:1013400090E0B7010E94FC0883E090E0B6010E94A3
:10135000FC0884E090E0B8010E94FC0881E090E085
:1013600060E070E00E9408078EE790E00E94C706E8
:101370001F910F91FF90EF90DF90CF9008950F9302
:101380001F938C010E942D07C80160EE70E041EFB1
:1013900050E022E031E003E111E00E9493091F9147
:1013A0000F910895EF92FF920F931F937C010E947B
:1013B0002D070AE111E0C7016DE171E043E151E061
:1013C00098010E94930960914801709149014091F0
:1013D0004A0150914B0181E090E00E9443071F9128
:1013E0000F91FF90EF9008950F931F938C010E942F
:1013F0002D07C80169E271E040E351E029E331E0E3
:101400000AE111E00E9493091F910F910895823023
:10141000910511F18330910519F1019759F5623069
:10142000710571F06330710524F46130710511F5B7
:101430000EC06330710559F064307105D9F407C0EE
:1014400081E090E00E94BF0923E030E016C081E017
:1014500090E00E94D2090FC06230710561F403C0B0
:101460006430710541F481E090E00E94F40921E0CC
:1014700030E003C0089522E030E0C901089597FBF1
:10148000092E07260AD077FD04D00CD006D0002004
:101490001AF4709561957F4F0895F6F790958195B0
:1014A0009F4F0895AA1BBB1B51E107C0AA1FBB1F7A
:1014B000A617B70710F0A61BB70B881F991F5A95E0
:1014C000A9F780959095BC01CD010895F894FFCFC0
:1014D0003D00010001006D61696E004F7074696F1D
:1014E0006E2031004F7074696F6E2032004F70743F
:1014F000696F6E2033004F7074696F6E2034004F37
:101500007074696F6E20350066006B0074007D009A
:1015100086008F00C0FFF9FFA4FFB0FF99FF92FF84
:1015200082FFF8FF80FF90FFC0FFF9FFA4FFB0FF2C
:1015300099FF92FF82FFF8FF80FF90FF3F000600B7
:101540005B004F0066006D007D0007007F006F00AC
:101550002020416C61726D2031202020202020202D
:10156000002020416C61726D20322020202020203C
:1015700020002020416C61726D203320202020202B
:1015800020200020204261636B00202000202020CA
:101590002020203A2020202000202054696D650062
:1015A0002020416C61726D73002020436C6F636B6F
:0815B000205370656564000022
:00000001FF
